{
    "contractName": "FileManager",
    "abi": [
        {
            "constant": false,
            "inputs": [
                {
                    "internalType": "string[]",
                    "name": "_fileInfo",
                    "type": "string[]"
                },
                {
                    "internalType": "string",
                    "name": "_cid",
                    "type": "string"
                }
            ],
            "name": "addFile",
            "outputs": [],
            "payable": false,
            "stateMutability": "nonpayable",
            "type": "function"
        },
        {
            "constant": true,
            "inputs": [
                {
                    "internalType": "address",
                    "name": "_account",
                    "type": "address"
                }
            ],
            "name": "getFiles",
            "outputs": [
                {
                    "components": [
                        {
                            "internalType": "string",
                            "name": "title",
                            "type": "string"
                        },
                        {
                            "internalType": "string",
                            "name": "fileName",
                            "type": "string"
                        },
                        {
                            "internalType": "string",
                            "name": "fileType",
                            "type": "string"
                        },
                        {
                            "internalType": "string",
                            "name": "cid",
                            "type": "string"
                        }
                    ],
                    "internalType": "struct FileManager.File[]",
                    "name": "",
                    "type": "tuple[]"
                }
            ],
            "payable": false,
            "stateMutability": "view",
            "type": "function"
        }
    ],
    "bytecode": "0x608060405234801561001057600080fd5b506108b1806100206000396000f3fe608060405234801561001057600080fd5b50600436106100365760003560e01c8063433bf37b1461003b578063f51592dd14610064575b600080fd5b61004e6100493660046105b5565b610079565b60405161005b919061076c565b60405180910390f35b6100776100723660046105db565b610343565b005b6001600160a01b038116600090815260208181526040808320805482518185028101850190935280835260609492939192909184015b828210156103385760008481526020908190206040805160048602909201805460026001821615610100026000190190911604601f8101859004909402830160a090810190925260808301848152929390928492909184918401828280156101585780601f1061012d57610100808354040283529160200191610158565b820191906000526020600020905b81548152906001019060200180831161013b57829003601f168201915b50505050508152602001600182018054600181600116156101000203166002900480601f0160208091040260200160405190810160405280929190818152602001828054600181600116156101000203166002900480156101fa5780601f106101cf576101008083540402835291602001916101fa565b820191906000526020600020905b8154815290600101906020018083116101dd57829003601f168201915b5050509183525050600282810180546040805160206001841615610100026000190190931694909404601f8101839004830285018301909152808452938101939083018282801561028c5780601f106102615761010080835404028352916020019161028c565b820191906000526020600020905b81548152906001019060200180831161026f57829003601f168201915b505050918352505060038201805460408051602060026001851615610100026000190190941693909304601f81018490048402820184019092528181529382019392918301828280156103205780601f106102f557610100808354040283529160200191610320565b820191906000526020600020905b81548152906001019060200180831161030357829003601f168201915b505050505081525050815260200190600101906100af565b505050509050919050565b600080336001600160a01b03166001600160a01b0316815260200190815260200160002060405180608001604052808460008151811061037f57fe5b602002602001015181526020018460018151811061039957fe5b60200260200101518152602001846002815181106103b357fe5b6020908102919091018101518252908101849052825460018101808555600094855293829020835180516004909302909101926103f59284929091019061044e565b50602082810151805161040e926001850192019061044e565b506040820151805161042a91600284019160209091019061044e565b506060820151805161044691600384019160209091019061044e565b505050505050565b828054600181600116156101000203166002900490600052602060002090601f016020900481019282601f1061048f57805160ff19168380011785556104bc565b828001600101855582156104bc579182015b828111156104bc5782518255916020019190600101906104a1565b506104c89291506104cc565b5090565b6104e691905b808211156104c857600081556001016104d2565b90565b80356104f481610857565b92915050565b600082601f83011261050b57600080fd5b813561051e610519826107a4565b61077d565b81815260209384019390925082018360005b8381101561055c57813586016105468882610566565b8452506020928301929190910190600101610530565b5050505092915050565b600082601f83011261057757600080fd5b8135610585610519826107c5565b915080825260208301602083018583830111156105a157600080fd5b6105ac838284610811565b50505092915050565b6000602082840312156105c757600080fd5b60006105d384846104e9565b949350505050565b600080604083850312156105ee57600080fd5b823567ffffffffffffffff81111561060557600080fd5b610611858286016104fa565b925050602083013567ffffffffffffffff81111561062e57600080fd5b61063a85828601610566565b9150509250929050565b600061065083836106fd565b9392505050565b6000610662826107f3565b61066c81856107f7565b93508360208202850161067e856107ed565b8060005b858110156106b8578484038952815161069b8582610644565b94506106a6836107ed565b60209a909a0199925050600101610682565b5091979650505050505050565b60006106d0826107f3565b6106da81856107f7565b93506106ea81856020860161081d565b6106f38161084d565b9093019392505050565b805160808084526000919084019061071582826106c5565b9150506020830151848203602086015261072f82826106c5565b9150506040830151848203604086015261074982826106c5565b9150506060830151848203606086015261076382826106c5565b95945050505050565b602080825281016106508184610657565b60405181810167ffffffffffffffff8111828210171561079c57600080fd5b604052919050565b600067ffffffffffffffff8211156107bb57600080fd5b5060209081020190565b600067ffffffffffffffff8211156107dc57600080fd5b506020601f91909101601f19160190565b60200190565b5190565b90815260200190565b60006001600160a01b0382166104f4565b82818337506000910152565b60005b83811015610838578181015183820152602001610820565b83811115610847576000848401525b50505050565b601f01601f191690565b61086081610800565b811461086b57600080fd5b5056fea365627a7a723158200191498632457d9582e7acaeb1fb30094121ed27996aa86532dbf16492df1fa26c6578706572696d656e74616cf564736f6c63430005100040",
    "source": "pragma solidity >=0.4.21 <0.6.0;\npragma experimental ABIEncoderV2;\n\ncontract FileManager {\n    struct File {\n        string title;\n        string fileName;\n        string fileType;\n        string cid;\n    }\n\n    mapping(address => File[]) files;\n\n    function addFile(string[] memory _fileInfo, string memory _cid) public {\n        files[msg.sender].push(File(_fileInfo[0], _fileInfo[1], _fileInfo[2], _cid));\n    }\n\n    function getFiles(address _account) public view returns (File[] memory) {\n        return files[_account];\n    }\n}",
    "sourcePath": "/home/guest/blockchain/dfm/src/contracts/FileManager.sol",
    "compiler": {
        "name": "solc",
        "version": "0.5.16+commit.9c3226ce.Emscripten.clang"
    },
    "schemaVersion": "3.4.1",
    "updatedAt": "2021-05-22T17:08:19.915Z",
    "networkType": "ethereum",
    "devdoc": {
        "methods": {}
    },
    "userdoc": {
        "methods": {}
    }
}